{"abi":[{"type":"constructor","inputs":[{"name":"name","type":"string","internalType":"string"},{"name":"symbol","type":"string","internalType":"string"},{"name":"multisigContract","type":"address","internalType":"address"}],"stateMutability":"nonpayable"},{"type":"function","name":"_activeSupply","inputs":[],"outputs":[{"name":"","type":"uint256","internalType":"uint256"}],"stateMutability":"view"},{"type":"function","name":"_admin","inputs":[],"outputs":[{"name":"","type":"address","internalType":"address"}],"stateMutability":"view"},{"type":"function","name":"_claimingContract","inputs":[],"outputs":[{"name":"","type":"address","internalType":"address"}],"stateMutability":"view"},{"type":"function","name":"_inflation_options","inputs":[{"name":"","type":"uint256","internalType":"uint256"}],"outputs":[{"name":"","type":"uint256","internalType":"uint256"}],"stateMutability":"view"},{"type":"function","name":"_initial_mint","inputs":[],"outputs":[{"name":"","type":"bool","internalType":"bool"}],"stateMutability":"view"},{"type":"function","name":"_lastMint","inputs":[],"outputs":[{"name":"","type":"uint256","internalType":"uint256"}],"stateMutability":"view"},{"type":"function","name":"_max_inflation_pct","inputs":[],"outputs":[{"name":"","type":"uint256","internalType":"uint256"}],"stateMutability":"view"},{"type":"function","name":"_multisigContract","inputs":[],"outputs":[{"name":"","type":"address","internalType":"address"}],"stateMutability":"view"},{"type":"function","name":"_scaling_factor","inputs":[],"outputs":[{"name":"","type":"uint256","internalType":"uint256"}],"stateMutability":"view"},{"type":"function","name":"allowance","inputs":[{"name":"owner","type":"address","internalType":"address"},{"name":"spender","type":"address","internalType":"address"}],"outputs":[{"name":"","type":"uint256","internalType":"uint256"}],"stateMutability":"view"},{"type":"function","name":"approve","inputs":[{"name":"spender","type":"address","internalType":"address"},{"name":"amount","type":"uint256","internalType":"uint256"}],"outputs":[{"name":"","type":"bool","internalType":"bool"}],"stateMutability":"nonpayable"},{"type":"function","name":"balanceOf","inputs":[{"name":"account","type":"address","internalType":"address"}],"outputs":[{"name":"","type":"uint256","internalType":"uint256"}],"stateMutability":"view"},{"type":"function","name":"burn","inputs":[{"name":"amount","type":"uint256","internalType":"uint256"}],"outputs":[],"stateMutability":"nonpayable"},{"type":"function","name":"decimals","inputs":[],"outputs":[{"name":"","type":"uint8","internalType":"uint8"}],"stateMutability":"view"},{"type":"function","name":"decreaseAllowance","inputs":[{"name":"spender","type":"address","internalType":"address"},{"name":"subtractedValue","type":"uint256","internalType":"uint256"}],"outputs":[{"name":"","type":"bool","internalType":"bool"}],"stateMutability":"nonpayable"},{"type":"function","name":"increaseAllowance","inputs":[{"name":"spender","type":"address","internalType":"address"},{"name":"addedValue","type":"uint256","internalType":"uint256"}],"outputs":[{"name":"","type":"bool","internalType":"bool"}],"stateMutability":"nonpayable"},{"type":"function","name":"initial_mint","inputs":[],"outputs":[],"stateMutability":"nonpayable"},{"type":"function","name":"mint","inputs":[],"outputs":[],"stateMutability":"nonpayable"},{"type":"function","name":"name","inputs":[],"outputs":[{"name":"","type":"string","internalType":"string"}],"stateMutability":"view"},{"type":"function","name":"owner","inputs":[],"outputs":[{"name":"","type":"address","internalType":"address"}],"stateMutability":"view"},{"type":"function","name":"renounceOwnership","inputs":[],"outputs":[],"stateMutability":"nonpayable"},{"type":"function","name":"setAdmin","inputs":[{"name":"admin","type":"address","internalType":"address"}],"outputs":[],"stateMutability":"nonpayable"},{"type":"function","name":"setClaimingContract","inputs":[{"name":"claimingContract","type":"address","internalType":"address"}],"outputs":[],"stateMutability":"nonpayable"},{"type":"function","name":"setInflationCap","inputs":[{"name":"index","type":"uint256","internalType":"uint256"}],"outputs":[],"stateMutability":"nonpayable"},{"type":"function","name":"setMultisigContract","inputs":[{"name":"multisigContract","type":"address","internalType":"address"}],"outputs":[],"stateMutability":"nonpayable"},{"type":"function","name":"symbol","inputs":[],"outputs":[{"name":"","type":"string","internalType":"string"}],"stateMutability":"view"},{"type":"function","name":"totalSupply","inputs":[],"outputs":[{"name":"","type":"uint256","internalType":"uint256"}],"stateMutability":"view"},{"type":"function","name":"transfer","inputs":[{"name":"to","type":"address","internalType":"address"},{"name":"amount","type":"uint256","internalType":"uint256"}],"outputs":[{"name":"","type":"bool","internalType":"bool"}],"stateMutability":"nonpayable"},{"type":"function","name":"transferFrom","inputs":[{"name":"from","type":"address","internalType":"address"},{"name":"to","type":"address","internalType":"address"},{"name":"amount","type":"uint256","internalType":"uint256"}],"outputs":[{"name":"","type":"bool","internalType":"bool"}],"stateMutability":"nonpayable"},{"type":"function","name":"transferOwnership","inputs":[{"name":"newOwner","type":"address","internalType":"address"}],"outputs":[],"stateMutability":"nonpayable"},{"type":"function","name":"updateActiveSupply","inputs":[{"name":"amount","type":"uint256","internalType":"uint256"}],"outputs":[],"stateMutability":"nonpayable"},{"type":"event","name":"Approval","inputs":[{"name":"owner","type":"address","indexed":true,"internalType":"address"},{"name":"spender","type":"address","indexed":true,"internalType":"address"},{"name":"value","type":"uint256","indexed":false,"internalType":"uint256"}],"anonymous":false},{"type":"event","name":"OwnershipTransferred","inputs":[{"name":"previousOwner","type":"address","indexed":true,"internalType":"address"},{"name":"newOwner","type":"address","indexed":true,"internalType":"address"}],"anonymous":false},{"type":"event","name":"Transfer","inputs":[{"name":"from","type":"address","indexed":true,"internalType":"address"},{"name":"to","type":"address","indexed":true,"internalType":"address"},{"name":"value","type":"uint256","indexed":false,"internalType":"uint256"}],"anonymous":false}],"bytecode":{"object":"0x6080604052620000126012600a620002f4565b6200002290633b9aca006200030c565b600b5563163a235e600c8190556040805161012081018252630ed8799b815263128a2e726020820152908101919091526319e85a4b6060820152631d94d525608082015263213f95d360a08201526324e89e3960c082015263288ff03660e0820152632c358daa6101008201526200009f90600d9060096200017d565b50348015620000ad57600080fd5b50604051620018ca380380620018ca833981016040819052620000d091620003eb565b82826003620000e0838262000507565b506004620000ef828262000507565b505060016005555062000102336200012b565b600780546001600160a01b0319166001600160a01b039290921691909117905550620005d39050565b600680546001600160a01b038381166001600160a01b0319831681179093556040519116919082907f8be0079c531659141344cd1fd0a4f28419497f9722a3daafe3b4186f6b6457e090600090a35050565b8260098101928215620001b6579160200282015b82811115620001b6578251829063ffffffff1690559160200191906001019062000191565b50620001c4929150620001c8565b5090565b5b80821115620001c45760008155600101620001c9565b634e487b7160e01b600052601160045260246000fd5b600181815b80851115620002365781600019048211156200021a576200021a620001df565b808516156200022857918102915b93841c9390800290620001fa565b509250929050565b6000826200024f57506001620002ee565b816200025e57506000620002ee565b81600181146200027757600281146200028257620002a2565b6001915050620002ee565b60ff841115620002965762000296620001df565b50506001821b620002ee565b5060208310610133831016604e8410600b8410161715620002c7575081810a620002ee565b620002d38383620001f5565b8060001904821115620002ea57620002ea620001df565b0290505b92915050565b60006200030560ff8416836200023e565b9392505050565b8082028115828204841417620002ee57620002ee620001df565b634e487b7160e01b600052604160045260246000fd5b600082601f8301126200034e57600080fd5b81516001600160401b03808211156200036b576200036b62000326565b604051601f8301601f19908116603f0116810190828211818310171562000396576200039662000326565b81604052838152602092508683858801011115620003b357600080fd5b600091505b83821015620003d75785820183015181830184015290820190620003b8565b600093810190920192909252949350505050565b6000806000606084860312156200040157600080fd5b83516001600160401b03808211156200041957600080fd5b62000427878388016200033c565b945060208601519150808211156200043e57600080fd5b506200044d868287016200033c565b604086015190935090506001600160a01b03811681146200046d57600080fd5b809150509250925092565b600181811c908216806200048d57607f821691505b602082108103620004ae57634e487b7160e01b600052602260045260246000fd5b50919050565b601f8211156200050257600081815260208120601f850160051c81016020861015620004dd5750805b601f850160051c820191505b81811015620004fe57828155600101620004e9565b5050505b505050565b81516001600160401b0381111562000523576200052362000326565b6200053b8162000534845462000478565b84620004b4565b602080601f8311600181146200057357600084156200055a5750858301515b600019600386901b1c1916600185901b178555620004fe565b600085815260208120601f198616915b82811015620005a45788860151825594840194600190910190840162000583565b5085821015620005c35787850151600019600388901b60f8161c191681555b5050505050600190811b01905550565b6112e780620005e36000396000f3fe608060405234801561001057600080fd5b50600436106101e55760003560e01c806370a082311161010f5780639ce69679116100a2578063bcdc686e11610071578063bcdc686e146103ea578063ca3a0d72146103f2578063dd62ed3e14610405578063f2fde38b1461041857600080fd5b80639ce696791461039d578063a457c2d7146103b0578063a9059cbb146103c3578063b7f2fa86146103d657600080fd5b8063867ecf33116100de578063867ecf331461035e5780638da5cb5b1461037157806395d89b41146103825780639b5f95b01461038a57600080fd5b806370a0823114610311578063715018a61461033a57806377e2543d146103425780637c9f4ef81461034b57600080fd5b806324b8cf2411610187578063395093511161015657806339509351146102c557806342966c68146102d85780635b02a0d9146102eb578063704b6c02146102fe57600080fd5b806324b8cf241461028e5780632b3e99f71461029a5780632ee4887e146102a3578063313ce567146102b657600080fd5b806312333a12116101c357806312333a12146102525780631249c58b1461026957806318160ddd1461027357806323b872dd1461027b57600080fd5b806301bc45c9146101ea57806306fdde031461021a578063095ea7b31461022f575b600080fd5b6009546101fd906001600160a01b031681565b6040516001600160a01b0390911681526020015b60405180910390f35b61022261042b565b60405161021191906110ae565b61024261023d366004611118565b6104bd565b6040519015158152602001610211565b61025b600b5481565b604051908152602001610211565b6102716104d7565b005b60025461025b565b610242610289366004611142565b61060f565b61025b64174876e80081565b61025b600a5481565b6102716102b136600461117e565b610633565b60405160128152602001610211565b6102426102d3366004611118565b61065d565b6102716102e63660046111a0565b61067f565b6102716102f93660046111a0565b6106a3565b61027161030c36600461117e565b610799565b61025b61031f36600461117e565b6001600160a01b031660009081526020819052604090205490565b6102716107c3565b61025b600c5481565b6008546101fd906001600160a01b031681565b61025b61036c3660046111a0565b6107d5565b6006546001600160a01b03166101fd565b6102226107ec565b6007546101fd906001600160a01b031681565b6102716103ab36600461117e565b6107fb565b6102426103be366004611118565b610825565b6102426103d1366004611118565b6108a0565b60095461024290600160a01b900460ff1681565b6102716108ae565b6102716104003660046111a0565b610974565b61025b6104133660046111b9565b6109dc565b61027161042636600461117e565b610a07565b60606003805461043a906111ec565b80601f0160208091040260200160405190810160405280929190818152602001828054610466906111ec565b80156104b35780601f10610488576101008083540402835291602001916104b3565b820191906000526020600020905b81548152906001019060200180831161049657829003601f168201915b5050505050905090565b6000336104cb818585610a7d565b60019150505b92915050565b6009546001600160a01b03163314806104fa57506006546001600160a01b031633145b6105385760405162461bcd60e51b815260206004820152600a60248201526927b7363c9020b236b4b760b11b60448201526064015b60405180910390fd5b610540610ba2565b6277f880600a5442610552919061123c565b1161059f5760405162461bcd60e51b815260206004820152601b60248201527f546f6f20736f6f6e20746f206d696e74206e657720746f6b656e730000000000604482015260640161052f565b6000600b546105ad60025490565b6105b7919061123c565b9050600064174876e800600c54600b546105d1919061124f565b6105db9190611266565b42600a55600754909150610601906001600160a01b03166105fc848461123c565b610bfb565b505061060d6001600555565b565b60003361061d858285610cba565b610628858585610d34565b506001949350505050565b61063b610ed8565b600780546001600160a01b0319166001600160a01b0392909216919091179055565b6000336104cb81858561067083836109dc565b61067a9190611288565b610a7d565b6106893382610f32565b80600b600082825461069b919061123c565b909155505050565b6008546001600160a01b031633146106f65760405162461bcd60e51b815260206004820152601660248201527513db9b1e4810db185a5b5a5b99c810dbdb9d1c9858dd60521b604482015260640161052f565b6106fe610ba2565b600254600b5461070e9083611288565b11156107775760405162461bcd60e51b815260206004820152603260248201527f416d6f756e742063616e6e6f742062652067726561746572207468616e2063756044820152717272656e7420746f74616c20737570706c7960701b606482015260840161052f565b80600b60008282546107899190611288565b9091555050600160055550565b50565b6107a1610ed8565b600980546001600160a01b0319166001600160a01b0392909216919091179055565b6107cb610ed8565b61060d600061105c565b600d81600981106107e557600080fd5b0154905081565b60606004805461043a906111ec565b610803610ed8565b600880546001600160a01b0319166001600160a01b0392909216919091179055565b6000338161083382866109dc565b9050838110156108935760405162461bcd60e51b815260206004820152602560248201527f45524332303a2064656372656173656420616c6c6f77616e63652062656c6f77604482015264207a65726f60d81b606482015260840161052f565b6106288286868403610a7d565b6000336104cb818585610d34565b6108b6610ed8565b6108be610ba2565b600954600160a01b900460ff16156109095760405162461bcd60e51b815260206004820152600e60248201526d105b1c9958591e481b5a5b9d195960921b604482015260640161052f565b6009805460ff60a01b1916600160a01b179055600c54600b5460009164174876e80091610936919061124f565b6109409190611266565b9050600b54816109509190611288565b600754909150610969906001600160a01b031682610bfb565b5061060d6001600555565b61097c610ed8565b600981106109c15760405162461bcd60e51b8152602060048201526012602482015271496e646578206f7574206f662072616e676560701b604482015260640161052f565b600d81600981106109d4576109d461129b565b0154600c5550565b6001600160a01b03918216600090815260016020908152604080832093909416825291909152205490565b610a0f610ed8565b6001600160a01b038116610a745760405162461bcd60e51b815260206004820152602660248201527f4f776e61626c653a206e6577206f776e657220697320746865207a65726f206160448201526564647265737360d01b606482015260840161052f565b6107968161105c565b6001600160a01b038316610adf5760405162461bcd60e51b8152602060048201526024808201527f45524332303a20617070726f76652066726f6d20746865207a65726f206164646044820152637265737360e01b606482015260840161052f565b6001600160a01b038216610b405760405162461bcd60e51b815260206004820152602260248201527f45524332303a20617070726f766520746f20746865207a65726f206164647265604482015261737360f01b606482015260840161052f565b6001600160a01b0383811660008181526001602090815260408083209487168084529482529182902085905590518481527f8c5be1e5ebec7d5bd14f71427d1e84f3dd0314c0f7b2291e5b200ac8c7c3b92591015b60405180910390a3505050565b600260055403610bf45760405162461bcd60e51b815260206004820152601f60248201527f5265656e7472616e637947756172643a207265656e7472616e742063616c6c00604482015260640161052f565b6002600555565b6001600160a01b038216610c515760405162461bcd60e51b815260206004820152601f60248201527f45524332303a206d696e7420746f20746865207a65726f206164647265737300604482015260640161052f565b8060026000828254610c639190611288565b90915550506001600160a01b038216600081815260208181526040808320805486019055518481527fddf252ad1be2c89b69c2b068fc378daa952ba7f163c4a11628f55a4df523b3ef910160405180910390a35050565b6000610cc684846109dc565b90506000198114610d2e5781811015610d215760405162461bcd60e51b815260206004820152601d60248201527f45524332303a20696e73756666696369656e7420616c6c6f77616e6365000000604482015260640161052f565b610d2e8484848403610a7d565b50505050565b6001600160a01b038316610d985760405162461bcd60e51b815260206004820152602560248201527f45524332303a207472616e736665722066726f6d20746865207a65726f206164604482015264647265737360d81b606482015260840161052f565b6001600160a01b038216610dfa5760405162461bcd60e51b815260206004820152602360248201527f45524332303a207472616e7366657220746f20746865207a65726f206164647260448201526265737360e81b606482015260840161052f565b6001600160a01b03831660009081526020819052604090205481811015610e725760405162461bcd60e51b815260206004820152602660248201527f45524332303a207472616e7366657220616d6f756e7420657863656564732062604482015265616c616e636560d01b606482015260840161052f565b6001600160a01b03848116600081815260208181526040808320878703905593871680835291849020805487019055925185815290927fddf252ad1be2c89b69c2b068fc378daa952ba7f163c4a11628f55a4df523b3ef910160405180910390a3610d2e565b6006546001600160a01b0316331461060d5760405162461bcd60e51b815260206004820181905260248201527f4f776e61626c653a2063616c6c6572206973206e6f7420746865206f776e6572604482015260640161052f565b6001600160a01b038216610f925760405162461bcd60e51b815260206004820152602160248201527f45524332303a206275726e2066726f6d20746865207a65726f206164647265736044820152607360f81b606482015260840161052f565b6001600160a01b038216600090815260208190526040902054818110156110065760405162461bcd60e51b815260206004820152602260248201527f45524332303a206275726e20616d6f756e7420657863656564732062616c616e604482015261636560f01b606482015260840161052f565b6001600160a01b0383166000818152602081815260408083208686039055600280548790039055518581529192917fddf252ad1be2c89b69c2b068fc378daa952ba7f163c4a11628f55a4df523b3ef9101610b95565b600680546001600160a01b038381166001600160a01b0319831681179093556040519116919082907f8be0079c531659141344cd1fd0a4f28419497f9722a3daafe3b4186f6b6457e090600090a35050565b600060208083528351808285015260005b818110156110db578581018301518582016040015282016110bf565b506000604082860101526040601f19601f8301168501019250505092915050565b80356001600160a01b038116811461111357600080fd5b919050565b6000806040838503121561112b57600080fd5b611134836110fc565b946020939093013593505050565b60008060006060848603121561115757600080fd5b611160846110fc565b925061116e602085016110fc565b9150604084013590509250925092565b60006020828403121561119057600080fd5b611199826110fc565b9392505050565b6000602082840312156111b257600080fd5b5035919050565b600080604083850312156111cc57600080fd5b6111d5836110fc565b91506111e3602084016110fc565b90509250929050565b600181811c9082168061120057607f821691505b60208210810361122057634e487b7160e01b600052602260045260246000fd5b50919050565b634e487b7160e01b600052601160045260246000fd5b818103818111156104d1576104d1611226565b80820281158282048414176104d1576104d1611226565b60008261128357634e487b7160e01b600052601260045260246000fd5b500490565b808201808211156104d1576104d1611226565b634e487b7160e01b600052603260045260246000fdfea264697066735822122082d6c02409f66ffe41025e8e35ae2497a0efc800dca086c2c114fa57b31a2b0264736f6c63430008110033","linkReferences":{}},"methodIdentifiers":{"_activeSupply()":"12333a12","_admin()":"01bc45c9","_claimingContract()":"7c9f4ef8","_inflation_options(uint256)":"867ecf33","_initial_mint()":"b7f2fa86","_lastMint()":"2b3e99f7","_max_inflation_pct()":"77e2543d","_multisigContract()":"9b5f95b0","_scaling_factor()":"24b8cf24","allowance(address,address)":"dd62ed3e","approve(address,uint256)":"095ea7b3","balanceOf(address)":"70a08231","burn(uint256)":"42966c68","decimals()":"313ce567","decreaseAllowance(address,uint256)":"a457c2d7","increaseAllowance(address,uint256)":"39509351","initial_mint()":"bcdc686e","mint()":"1249c58b","name()":"06fdde03","owner()":"8da5cb5b","renounceOwnership()":"715018a6","setAdmin(address)":"704b6c02","setClaimingContract(address)":"9ce69679","setInflationCap(uint256)":"ca3a0d72","setMultisigContract(address)":"2ee4887e","symbol()":"95d89b41","totalSupply()":"18160ddd","transfer(address,uint256)":"a9059cbb","transferFrom(address,address,uint256)":"23b872dd","transferOwnership(address)":"f2fde38b","updateActiveSupply(uint256)":"5b02a0d9"},"id":25}